{
  "_format": "hh-sol-artifact-1",
  "contractName": "Ballot",
  "sourceName": "contracts/Ballot.sol",
  "abi": [
    {
      "inputs": [],
      "stateMutability": "nonpayable",
      "type": "constructor"
    },
    {
      "anonymous": false,
      "inputs": [
        {
          "indexed": false,
          "internalType": "address",
          "name": "voter",
          "type": "address"
        },
        {
          "indexed": false,
          "internalType": "uint256",
          "name": "voteIndex",
          "type": "uint256"
        },
        {
          "indexed": false,
          "internalType": "uint256",
          "name": "vote",
          "type": "uint256"
        }
      ],
      "name": "Voted",
      "type": "event"
    },
    {
      "anonymous": false,
      "inputs": [
        {
          "indexed": false,
          "internalType": "string",
          "name": "proposal",
          "type": "string"
        },
        {
          "indexed": false,
          "internalType": "address",
          "name": "proposalCreator",
          "type": "address"
        },
        {
          "indexed": false,
          "internalType": "uint256",
          "name": "proposalNumber",
          "type": "uint256"
        },
        {
          "indexed": false,
          "internalType": "uint256",
          "name": "timestamp",
          "type": "uint256"
        },
        {
          "indexed": false,
          "internalType": "uint256",
          "name": "startTime",
          "type": "uint256"
        },
        {
          "indexed": false,
          "internalType": "uint256",
          "name": "endTime",
          "type": "uint256"
        },
        {
          "indexed": false,
          "internalType": "uint256",
          "name": "yesVoteCount",
          "type": "uint256"
        },
        {
          "indexed": false,
          "internalType": "uint256",
          "name": "noVoteCount",
          "type": "uint256"
        }
      ],
      "name": "addVoteBlockchain",
      "type": "event"
    },
    {
      "inputs": [
        {
          "internalType": "string",
          "name": "_proposal",
          "type": "string"
        },
        {
          "internalType": "uint256",
          "name": "_startTime",
          "type": "uint256"
        },
        {
          "internalType": "uint256",
          "name": "_endTime",
          "type": "uint256"
        }
      ],
      "name": "addVote",
      "outputs": [],
      "stateMutability": "nonpayable",
      "type": "function"
    },
    {
      "inputs": [
        {
          "internalType": "address",
          "name": "",
          "type": "address"
        }
      ],
      "name": "alredyVoted",
      "outputs": [
        {
          "internalType": "uint256",
          "name": "",
          "type": "uint256"
        }
      ],
      "stateMutability": "view",
      "type": "function"
    },
    {
      "inputs": [],
      "name": "ec",
      "outputs": [
        {
          "internalType": "address",
          "name": "",
          "type": "address"
        }
      ],
      "stateMutability": "view",
      "type": "function"
    },
    {
      "inputs": [],
      "name": "getAllVote",
      "outputs": [
        {
          "components": [
            {
              "internalType": "string",
              "name": "proposal",
              "type": "string"
            },
            {
              "internalType": "address",
              "name": "proposalCreator",
              "type": "address"
            },
            {
              "internalType": "uint256",
              "name": "proposalNumber",
              "type": "uint256"
            },
            {
              "internalType": "uint256",
              "name": "timestamp",
              "type": "uint256"
            },
            {
              "internalType": "uint256",
              "name": "startTime",
              "type": "uint256"
            },
            {
              "internalType": "uint256",
              "name": "endTime",
              "type": "uint256"
            },
            {
              "internalType": "uint256",
              "name": "yesVoteCount",
              "type": "uint256"
            },
            {
              "internalType": "uint256",
              "name": "noVoteCount",
              "type": "uint256"
            },
            {
              "internalType": "uint256",
              "name": "totalVote",
              "type": "uint256"
            }
          ],
          "internalType": "struct Ballot.Vote[]",
          "name": "",
          "type": "tuple[]"
        }
      ],
      "stateMutability": "view",
      "type": "function"
    },
    {
      "inputs": [
        {
          "internalType": "uint256",
          "name": "proposalNumber",
          "type": "uint256"
        },
        {
          "internalType": "uint256",
          "name": "vote",
          "type": "uint256"
        }
      ],
      "name": "toVote",
      "outputs": [],
      "stateMutability": "nonpayable",
      "type": "function"
    }
  ],
  "bytecode": "0x608060405234801561001057600080fd5b5033600260006101000a81548173ffffffffffffffffffffffffffffffffffffffff021916908373ffffffffffffffffffffffffffffffffffffffff160217905550611156806100616000396000f3fe608060405234801561001057600080fd5b50600436106100575760003560e01c80632438f2441461005c5780638a95baaa146100785780638f70251f146100965780639a4c115d146100b2578063f83b5dce146100e2575b600080fd5b610076600480360381019061007191906106d8565b610100565b005b61008061032a565b60405161008d919061097f565b60405180910390f35b6100b060048036038101906100ab9190610ad6565b6104b8565b005b6100cc60048036038101906100c79190610b71565b610650565b6040516100d99190610bad565b60405180910390f35b6100ea610668565b6040516100f79190610bd7565b60405180910390f35b81600360003373ffffffffffffffffffffffffffffffffffffffff1673ffffffffffffffffffffffffffffffffffffffff1681526020019081526020016000205403610181576040517f08c379a000000000000000000000000000000000000000000000000000000000815260040161017890610c4f565b60405180910390fd5b81600360003373ffffffffffffffffffffffffffffffffffffffff1673ffffffffffffffffffffffffffffffffffffffff1681526020019081526020016000208190555060005b6000805490508110156103255782600082815481106101ea576101e9610c6f565b5b90600052602060002090600902016002015403610312576000820361024b5760016000828154811061021f5761021e610c6f565b5b9060005260206000209060090201600701600082825461023f9190610ccd565b92505081905550610292565b600182036102915760016000828154811061026957610268610c6f565b5b906000526020600020906009020160060160008282546102899190610ccd565b925050819055505b5b600081815481106102a6576102a5610c6f565b5b906000526020600020906009020160070154600082815481106102cc576102cb610c6f565b5b9060005260206000209060090201600601546102e89190610ccd565b600082815481106102fc576102fb610c6f565b5b9060005260206000209060090201600801819055505b808061031d90610d01565b9150506101c8565b505050565b60606000805480602002602001604051908101604052809291908181526020016000905b828210156104af57838290600052602060002090600902016040518061012001604052908160008201805461038290610d78565b80601f01602080910402602001604051908101604052809291908181526020018280546103ae90610d78565b80156103fb5780601f106103d0576101008083540402835291602001916103fb565b820191906000526020600020905b8154815290600101906020018083116103de57829003601f168201915b505050505081526020016001820160009054906101000a900473ffffffffffffffffffffffffffffffffffffffff1673ffffffffffffffffffffffffffffffffffffffff1673ffffffffffffffffffffffffffffffffffffffff1681526020016002820154815260200160038201548152602001600482015481526020016005820154815260200160068201548152602001600782015481526020016008820154815250508152602001906001019061034e565b50505050905090565b60018060008282546104ca9190610ccd565b9250508190555060006040518061012001604052808581526020013373ffffffffffffffffffffffffffffffffffffffff1681526020016001548152602001428152602001848152602001838152602001600081526020016000815260200160008152509050600081908060018154018082558091505060019003906000526020600020906009020160009091909190915060008201518160000190816105719190610f55565b5060208201518160010160006101000a81548173ffffffffffffffffffffffffffffffffffffffff021916908373ffffffffffffffffffffffffffffffffffffffff16021790555060408201518160020155606082015181600301556080820151816004015560a0820151816005015560c0820151816006015560e08201518160070155610100820151816008015550507fa85512654ee28d13a684220e5df5acf31137ded482a147a492195f99a8cceaf0843360015442878760008060405161064298979695949392919061109b565b60405180910390a150505050565b60036020528060005260406000206000915090505481565b600260009054906101000a900473ffffffffffffffffffffffffffffffffffffffff1681565b6000604051905090565b600080fd5b600080fd5b6000819050919050565b6106b5816106a2565b81146106c057600080fd5b50565b6000813590506106d2816106ac565b92915050565b600080604083850312156106ef576106ee610698565b5b60006106fd858286016106c3565b925050602061070e858286016106c3565b9150509250929050565b600081519050919050565b600082825260208201905092915050565b6000819050602082019050919050565b600081519050919050565b600082825260208201905092915050565b60005b8381101561077e578082015181840152602081019050610763565b60008484015250505050565b6000601f19601f8301169050919050565b60006107a682610744565b6107b0818561074f565b93506107c0818560208601610760565b6107c98161078a565b840191505092915050565b600073ffffffffffffffffffffffffffffffffffffffff82169050919050565b60006107ff826107d4565b9050919050565b61080f816107f4565b82525050565b61081e816106a2565b82525050565b6000610120830160008301518482036000860152610842828261079b565b91505060208301516108576020860182610806565b50604083015161086a6040860182610815565b50606083015161087d6060860182610815565b5060808301516108906080860182610815565b5060a08301516108a360a0860182610815565b5060c08301516108b660c0860182610815565b5060e08301516108c960e0860182610815565b506101008301516108de610100860182610815565b508091505092915050565b60006108f58383610824565b905092915050565b6000602082019050919050565b600061091582610718565b61091f8185610723565b93508360208202850161093185610734565b8060005b8581101561096d578484038952815161094e85826108e9565b9450610959836108fd565b925060208a01995050600181019050610935565b50829750879550505050505092915050565b60006020820190508181036000830152610999818461090a565b905092915050565b600080fd5b600080fd5b7f4e487b7100000000000000000000000000000000000000000000000000000000600052604160045260246000fd5b6109e38261078a565b810181811067ffffffffffffffff82111715610a0257610a016109ab565b5b80604052505050565b6000610a1561068e565b9050610a2182826109da565b919050565b600067ffffffffffffffff821115610a4157610a406109ab565b5b610a4a8261078a565b9050602081019050919050565b82818337600083830152505050565b6000610a79610a7484610a26565b610a0b565b905082815260208101848484011115610a9557610a946109a6565b5b610aa0848285610a57565b509392505050565b600082601f830112610abd57610abc6109a1565b5b8135610acd848260208601610a66565b91505092915050565b600080600060608486031215610aef57610aee610698565b5b600084013567ffffffffffffffff811115610b0d57610b0c61069d565b5b610b1986828701610aa8565b9350506020610b2a868287016106c3565b9250506040610b3b868287016106c3565b9150509250925092565b610b4e816107f4565b8114610b5957600080fd5b50565b600081359050610b6b81610b45565b92915050565b600060208284031215610b8757610b86610698565b5b6000610b9584828501610b5c565b91505092915050565b610ba7816106a2565b82525050565b6000602082019050610bc26000830184610b9e565b92915050565b610bd1816107f4565b82525050565b6000602082019050610bec6000830184610bc8565b92915050565b600082825260208201905092915050565b7f596f752061726520616c7265647920766f746564210000000000000000000000600082015250565b6000610c39601583610bf2565b9150610c4482610c03565b602082019050919050565b60006020820190508181036000830152610c6881610c2c565b9050919050565b7f4e487b7100000000000000000000000000000000000000000000000000000000600052603260045260246000fd5b7f4e487b7100000000000000000000000000000000000000000000000000000000600052601160045260246000fd5b6000610cd8826106a2565b9150610ce3836106a2565b9250828201905080821115610cfb57610cfa610c9e565b5b92915050565b6000610d0c826106a2565b91507fffffffffffffffffffffffffffffffffffffffffffffffffffffffffffffffff8203610d3e57610d3d610c9e565b5b600182019050919050565b7f4e487b7100000000000000000000000000000000000000000000000000000000600052602260045260246000fd5b60006002820490506001821680610d9057607f821691505b602082108103610da357610da2610d49565b5b50919050565b60008190508160005260206000209050919050565b60006020601f8301049050919050565b600082821b905092915050565b600060088302610e0b7fffffffffffffffffffffffffffffffffffffffffffffffffffffffffffffffff82610dce565b610e158683610dce565b95508019841693508086168417925050509392505050565b6000819050919050565b6000610e52610e4d610e48846106a2565b610e2d565b6106a2565b9050919050565b6000819050919050565b610e6c83610e37565b610e80610e7882610e59565b848454610ddb565b825550505050565b600090565b610e95610e88565b610ea0818484610e63565b505050565b5b81811015610ec457610eb9600082610e8d565b600181019050610ea6565b5050565b601f821115610f0957610eda81610da9565b610ee384610dbe565b81016020851015610ef2578190505b610f06610efe85610dbe565b830182610ea5565b50505b505050565b600082821c905092915050565b6000610f2c60001984600802610f0e565b1980831691505092915050565b6000610f458383610f1b565b9150826002028217905092915050565b610f5e82610744565b67ffffffffffffffff811115610f7757610f766109ab565b5b610f818254610d78565b610f8c828285610ec8565b600060209050601f831160018114610fbf5760008415610fad578287015190505b610fb78582610f39565b86555061101f565b601f198416610fcd86610da9565b60005b82811015610ff557848901518255600182019150602085019450602081019050610fd0565b86831015611012578489015161100e601f891682610f1b565b8355505b6001600288020188555050505b505050505050565b600061103282610744565b61103c8185610bf2565b935061104c818560208601610760565b6110558161078a565b840191505092915050565b6000819050919050565b600061108561108061107b84611060565b610e2d565b6106a2565b9050919050565b6110958161106a565b82525050565b60006101008201905081810360008301526110b6818b611027565b90506110c5602083018a610bc8565b6110d26040830189610b9e565b6110df6060830188610b9e565b6110ec6080830187610b9e565b6110f960a0830186610b9e565b61110660c083018561108c565b61111360e083018461108c565b999850505050505050505056fea2646970667358221220838add6204537da6c6ed781e7ff54293b0fc9f86d4b66e706fa82a4b3900439d64736f6c63430008110033",
  "linkReferences": {},
  "deployedLinkReferences": {}
}